:100000000C94C0000C9403040C94DD000C94DD00EF
:100010000C94DD000C94DD000C94DD000C94DD00EC
:100020000C94DD000C94DD000C94DD000C94DD00DC
:100030000C94DD000C94DD000C94DD000C94DD00CC
:100040000C9488020C94DD000C94DD000C94DD000F
:100050000C94DD000C94DD000C94DD000C94DD00AC
:100060000C94DD000C94DD0005010906A101850159
:10007000050719E029E7150025017501950881029A
:10008000950175082565190029658100C005010BDA
:1000900002000100A1010B01000100A10085020581
:1000A000091B010009002B0300090015002501753B
:1000B000019503810275059501810305010B30004F
:1000C00001000B310001001581257F750895028123
:1000D00006C0C005010904A10105010901A10085AF
:1000E0000305010932150026FF03750A95018102F7
:1000F00005090901150025017501950181027501A8
:1001000095058103C0C009022200010100800A098F
:100110000400000103000000092101010001229EEA
:1001200000070581030800141201100100000008F7
:10013000C016820400010102000128035000720071
:100140006100630074006900630075006D002000A9
:10015000480049004400200043006F006D00620029
:100160006F001A036300700065002E006B007500BD
:100170002E00610063002E0074006800040309046F
:1001800011241FBECFEFD4E0DEBFCDBF11E0A0E051
:10019000B1E0E4EAFAE002C005900D92A230B107A6
:1001A000D9F721E0A2E0B1E001C01D92A735B20766
:1001B000E1F70E9424050C9450050C94000082E2A3
:1001C00087B981E184B98FE388B985B9539A0895D5
:1001D00080E00895E6E1F1E08283618363E0CF018E
:1001E0000C94AF02E2E1F1E082836383418364E037
:1001F000CF010C94AF029BB188E089278BB9089599
:100200000F931F93CF93DF93EC01E881F98130972F
:1002100009F493C009948BE091E0998388830E944C
:100220007802009106011091070120910801309198
:100230000901DC01CB01801B910BA20BB30B883CA5
:100240009105A105B10508F4D7C060E088E10E94DE
:10025000EA000E9478026093060170930701809380
:1002600008019093090183E391E0998388830E94B8
:100270007802009106011091070120910801309148
:100280000901DC01CB01801B910BA20BB30B883C55
:100290009105A105B10508F4AFC060E083E10E94BB
:1002A000EA000E9478026093060170930701809330
:1002B0000801909309018BE591E0998388830E945E
:1002C00078020091060110910701209108013091F8
:1002D0000901DC01CB01801B910BA20BB30B883C05
:1002E0009105A105B10508F487C060E080E00E9497
:1002F000EA000E94780260930601709307018093E0
:1003000008019093090183E891E0998388830E9412
:1003100078020091060110910701209108013091A7
:100320000901DC01CB01801B910BA20BB30B883CB4
:100330009105A105B10508F45FC02C9830990DC056
:100340000E94FB000E9478026093060170930701EF
:1003500080930801909309015ECF86B183B183B188
:10036000ECCF81EB91E0998388830E947802009121
:100370000601109107012091080130910901DC016B
:10038000CB01801B910BA20BB30B883C9105A105FF
:10039000B10590F160E086E10E94EA000E947802D7
:1003A00060930601709307018093080190930901FF
:1003B00088ED91E0998388830E947802009106017C
:1003C000109107012091080130910901DC01CB0156
:1003D000801B910BA20BB30B84369105A105B105CF
:1003E00058F060E080E00E94EA00A7CF86EF91E03D
:1003F000E1CF89EF91E0DECF80E0DF91CF911F91D7
:100400000F9108950F931F93CF93DF93EC01E88131
:10041000F981309709F00994539A0E947802609309
:10042000020170930301809304019093050187E119
:1004300092E0998388830E947802009102011091D2
:1004400003012091040130910501DC01CB01801BE7
:10045000910BA20BB30B843F9140A105B10530F184
:100460005B9A0E947802609302017093030180936B
:100470000401909305018BE392E0998388830E94A5
:100480007802009102011091030120910401309142
:100490000501DC01CB01801B910BA20BB30B843F48
:1004A0009140A105B10510F05B98B7CF80E0DF91D6
:1004B000CF911F910F910895CF93DF93DC01ED91C0
:1004C000FC91309709F00994EC018FE191E00E94D2
:1004D00000011982188283E0DF91CF91089514BC46
:1004E00083E085BD81E080936E0086E086BD08953F
:1004F0002FB7F89480910A0190910B01A0910C0103
:10050000B0910D012FBFBC01CD0188279927089517
:100510001F920F920FB60F9211248F939F93AF9358
:10052000BF9380910A0190910B01A0910C01B091B1
:100530000D010196A11DB11D80930A0190930B013D
:10054000A0930C01B0930D0186E086BDBF91AF91E1
:100550009F918F910F900FBE0F901F901895CF9382
:10056000C62F20912C0124FF07C030912D0128E8CF
:10057000232720932D0103C02AE520932C01DC01C1
:10058000EEE2F1E09C2F9E0F8D918193892F8E1BBF
:100590001816D4F36C2F8EE291E00E94FF03CC5F1B
:1005A000C0932C01CF910895CF93DF9380913D01AB
:1005B000835087FDA9C090913A01209139012D32D5
:1005C00009F0A0C0883009F09DC0CCE0D0E0C91B84
:1005D000D109CF5BDE4F83EC809321018AE58093C4
:1005E000010110920E018881807621F0CE010E94D7
:1005F000E8007FC09A8110922A018981811106C08A
:1006000010922B012AE231E082E06FC0853019F4AC
:1006100090933E0167C0863009F04EC08B818130D7
:1006200041F488E291E090933C0180933B0182E1A8
:100630003FC0823041F486E091E090933C0180938A
:100640003B0182E235C08330F1F4911108C08CE7A0
:1006500091E090933C0180933B0184E029C091306C
:1006600041F482E691E090933C0180933B018AE162
:100670001FC09230E1F48AE391E090933C018093B3
:100680003B0188E215C0813241F488E191E090930A
:100690003C0180933B0189E00BC0823241F488E643
:1006A00090E090933C0180933B018EE901C080E093
:1006B00090E490930E011DC0883069F0893019F4E0
:1006C000909340010FC08A3049F08B3059F48BE48D
:1006D00080932D0107C020E431E002C02AE231E01E
:1006E00081E003C02AE231E080E030933C012093B6
:1006F0003B019F81911104C09E81981708F4892FB6
:100700008093000110923D018091010184FF48C057
:10071000809100018F3F09F443C0C82F893008F051
:10072000C8E08C1B809300019091210188E8892703
:1007300080932101CC2339F180913B0190913C01C0
:1007400020910E0126FF0BC0A2E2B1E0FC012C2F8C
:10075000280F34913D9331962E13FBCF09C0DC0155
:10076000E2E2F1E02C2F2E0F3D9131932E13FCCFBE
:100770002FEF2C0F30E02F5F3F4F820F931F90938E
:100780003C0180933B016C2F82E291E00E94FF03C9
:10079000CC5FCC3019F08FEF80930001C093010142
:1007A00084E199B1947131F48150D9F710923E01EE
:1007B00010923801DF91CF910895E9E6F0E0808151
:1007C00082608083E89AECE2F1E08BE481838AE541
:1007D00080830895A82FB92F80E090E041E050EA8F
:1007E000609530E009C02D9182279795879510F08C
:1007F00084279527305EC8F36F5FA8F30895EADF7A
:100800008D939D930895CF93CFB7CF93DF93C395E7
:100810004C9BE9F74C9B0BC04C9B09C04C9B07C001
:100820004C9B05C04C9B03C04C9B01C08BC06F937D
:10083000C0913A01DD27CF5BDE4F2F9365E54C9BDE
:1008400003C02F916F91E6CF0F931F934F9320E03A
:1008500040E15F9309B1047104FB27F93F9350E035
:100860003BE039C0147140642F77012F5F5F1EC0D9
:10087000406819B114712F7752501FC0406409B1FC
:100880002F770471D1F15F5F00C023C0406219B1BE
:100890002F77147191F15F5F00C025C0047110279C
:1008A000515012F45D5F0000115027952C3F19B193
:1008B000C8F614710127015027952C3FC8F642272E
:1008C000499309B1047110274F73115027952C3F9C
:1008D000A8F64695469519B1147179F00127015093
:1008E00027952C3F98F66B5A60F3315009B1B0F65A
:1008F00000C011E01CBB002719C03B503195C31B41
:10090000D04011E01CBB0881033C09F10B34F9F025
:10091000209138011981110F1213EDCF4A81441F24
:10092000093651F10D3211F0013E29F700933F01D4
:100930003F915F914F911F910F912F916F91CCB388
:10094000C0FD65CFDF91CF91CFBFCF91189520919A
:100950003F01222369F310913D01112391F53430B9
:1009600092F130933D012093390110913A013BE01F
:10097000311B30933A0127C000913D0101300CF545
:100980000AE54F7049F43091010134FD1DC0009318
:100990000101C1E2D1E01CC030912C0134FD14C032
:1009A00000932C01CDE2D1E013C0052710E000C078
:1009B00000000BB91AC0052710E0221F1DC010E06F
:1009C00021C04AE502C032ED432FC4E1D0E032E05D
:1009D0001AB114615C9A0BB11AB954E120E865E3CD
:1009E00020FF05270BB9279517951C3FF0F6669554
:1009F000B8F7B1F720FF05270BB9279517951C3FCE
:100A0000D0F62795179517FF052700001C3F0BB957
:100A1000B0F629913A9519F70B7E10913E01110F0E
:100A2000C651D0400BB911F01093380111E01CBB36
:100A300000611AB11B7E402F4B7E54E05A95F1F7AE
:100A40000BB91AB94BB974CF0E94DF000E946F0234
:100A50000E94DD03549A2FEF85EA9EE021508040EA
:100A60009040E1F700C00000549881E080931601A7
:100A7000109217011092180110921C0110921B0184
:100A800010921A01109219011092200110921F0168
:100A900078940E94D4028BE191E00E945C02F9CF2D
:040AA000F894FFCFF8
:020AA400FF5AF7
:00000001FF
