:100000000C94C0000C94C3030C94DD000C94DD0030
:100010000C94DD000C94DD000C94DD000C94DD00EC
:100020000C94DD000C94DD000C94DD000C94DD00DC
:100030000C94DD000C94DD000C94DD000C94DD00CC
:100040000C9448020C94DD000C94DD000C94DD004F
:100050000C94DD000C94DD000C94DD000C94DD00AC
:100060000C94DD000C94DD0005010906A101850159
:10007000050719E029E7150025017501950881029A
:10008000950475082565190029658100C005010BD7
:1000900002000100A1010B01000100A10085020581
:1000A000091B010009002B0300090015002501753B
:1000B000019503810275059501810305010B30004F
:1000C00001000B310001001581257F750895028123
:1000D00006C0C005010904A10105010901A10085AF
:1000E0000305010932150026FF03750A95018102F7
:1000F00005090901150025017501950181027501A8
:1001000095058103C0C009022200010100800A098F
:100110000400000103000000092101010001229EEA
:1001200000070581030800141201100100000008F7
:10013000C016820400010102000128035000720071
:100140006100630074006900630075006D002000A9
:10015000480049004400200043006F006D00620029
:100160006F001A036300700065002E006B007500BD
:100170002E00610063002E0074006800040309046F
:1001800011241FBECFEFD4E0DEBFCDBF11E0A0E051
:10019000B1E0E8E3FAE002C005900D92A230B107A9
:1001A000D9F721E0A2E0B1E001C01D92AC35B20761
:1001B000E1F70E94E4040C941A050C94000082E21A
:1001C00087B981E184B98FE388B985B9539A0895D5
:1001D00080E00895DC018C91E5E1F1E082831196E5
:1001E0008C911197838312968C9112978483139626
:1001F0008C918583618366E0CF010C946F02E1E10D
:10020000F1E082836383418364E0CF010C946F0249
:100210009BB188E089278BB908950F931F93CF93E3
:10022000DF93EC0104E111E019830883809131012F
:1002300084FF1AC09091250190931701909123019A
:100240009093180190910E019093190190912401BF
:1002500090931A011092160166E085E191E00E94E8
:100260006F020E940801E0CF80E0DF91CF911F91E3
:100270000F910895CF93DF93EC0191E028813981AC
:10028000232B09F071C02C98309902C08AE103C079
:10029000349904C086E1809325010AC01D9902C0EB
:1002A00084E0F9CF199902C087E0F5CF10922501BB
:1002B0002C9A4198309904C00E94080182E505C03B
:1002C000349906C00E94080181E5809323010EC085
:1002D0001D9904C00E94080180E5F7CF199904C058
:1002E0000E9408018FE4F1CF10922301419A2898CF
:1002F000309904C00E94080187E105C0349906C006
:100300000E9408018AE080930E010EC01D9904C06E
:100310000E94080189E0F7CF199904C00E940801E2
:100320008BE0F1CF10920E01289A4598309904C0C5
:100330000E9408018CE005C0349906C00E940801A3
:100340008EE0809324010EC01D9904C00E94080114
:100350008DE0F7CF199904C00E9408018FE0F1CF1A
:1003600010922401459A90E024EB31E039832883F0
:10037000911189CF81E0DF91CF9108950F931F9361
:10038000CF93DF93EC01E881F981309709F009946C
:10039000539A0E9438026093020170930301809384
:1003A00004019093050183ED91E0998388830E9475
:1003B0003802009102011091030120910401309153
:1003C0000501DC01CB01801B910BA20BB30B843F19
:1003D0009140A105B10530F15B9A0E94380260930B
:1003E000020170930301809304019093050187EF4C
:1003F00091E0998388830E94380200910201109154
:1004000003012091040130910501DC01CB01801B27
:10041000910BA20BB30B843F9140A105B10510F0E5
:100420005B98B7CF80E0DF91CF911F910F91089536
:10043000CF93DF93DC01ED91FC91309709F00994A3
:10044000EC0181E291E00E943A018FE091E00E948C
:100450000D011982188283E0DF91CF91089514BCB9
:1004600083E085BD81E080936E0086E086BD0895BF
:100470002FB7F8948091060190910701A09108018F
:10048000B09109012FBFBC01CD018827992708959C
:100490001F920F920FB60F9211248F939F93AF93D9
:1004A000BF938091060190910701A0910801B0913E
:1004B00009010196A11DB11D8093060190930701CA
:1004C000A0930801B093090186E086BDBF91AF916A
:1004D0009F918F910F900FBE0F901F901895CF9303
:1004E000C62F2091310124FF07C03091320128E846
:1004F00023272093320103C02AE520933101DC0138
:10050000E3E3F1E09C2F9E0F8D918193892F8E1B49
:100510001816D4F36C2F83E391E00E94BF03CC5FE5
:10052000C0933101CF910895CF93DF938091420121
:10053000835087FDA9C090913F0120913E012D324B
:1005400009F0A0C0883009F09DC0CCE0D0E0C91B04
:10055000D109CA5BDE4F83EC809326018AE5809344
:10056000010110920A018881807621F0CE010E945B
:10057000E8007FC09A8110922F018981811106C005
:10058000109230012FE231E082E06FC0853019F423
:100590009093430167C0863009F04EC08B81813053
:1005A00041F488E291E0909341018093400182E11F
:1005B0003FC0823041F486E091E090934101809306
:1005C000400182E235C08330F1F4911108C08CE71C
:1005D00091E0909341018093400184E029C09130E3
:1005E00041F482E691E090934101809340018AE1D9
:1005F0001FC09230E1F48AE391E09093410180932F
:10060000400188E215C0813241F488E191E0909385
:1006100041018093400189E00BC0823241F488E6B9
:1006200090E090934101809340018EE901C080E009
:1006300090E490930A011DC0883069F0893019F464
:10064000909345010FC08A3049F08B3059F48BE408
:100650008093320107C025E431E002C02FE231E08F
:1006600081E003C02FE231E080E03093410120932C
:1006700040019F81911104C09E81981708F4892F31
:1006800080930001109242018091010184FF48C0D3
:10069000809100018F3F09F443C0C82F893008F0D2
:1006A000C8E08C1B809300019091260188E889277F
:1006B00080932601CC2339F1809140019091410132
:1006C00020910A0126FF0BC0A7E2B1E0FC012C2F0C
:1006D000280F34913D9331962E13FBCF09C0DC01D6
:1006E000E7E2F1E02C2F2E0F3D9131932E13FCCF3A
:1006F0002FEF2C0F30E02F5F3F4F820F931F90930F
:100700004101809340016C2F87E291E00E94BF037A
:10071000CC5FCC3019F08FEF80930001C0930101C2
:1007200084E199B1947131F48150D9F71092430169
:1007300010923D01DF91CF910895E9E6F0E08081CC
:1007400082608083E89AE1E3F1E08BE481838AE5CB
:1007500080830895A82FB92F80E090E041E050EA0F
:10076000609530E009C02D9182279795879510F00C
:1007700084279527305EC8F36F5FA8F30895EADFFA
:100780008D939D930895CF93CFB7CF93DF93C39568
:100790004C9BE9F74C9B0BC04C9B09C04C9B07C082
:1007A0004C9B05C04C9B03C04C9B01C08BC06F93FE
:1007B000C0913F01DD27CA5BDE4F2F9365E54C9B5F
:1007C00003C02F916F91E6CF0F931F934F9320E0BB
:1007D00040E15F9309B1047104FB27F93F9350E0B6
:1007E0003BE039C0147140642F77012F5F5F1EC05A
:1007F000406819B114712F7752501FC0406409B17D
:100800002F770471D1F15F5F00C023C0406219B13E
:100810002F77147191F15F5F00C025C0047110271C
:10082000515012F45D5F0000115027952C3F19B113
:10083000C8F614710127015027952C3FC8F64227AE
:10084000499309B1047110274F73115027952C3F1C
:10085000A8F64695469519B1147179F00127015013
:1008600027952C3F98F66B5A60F3315009B1B0F6DA
:1008700000C011E01CBB002719C03B503195C31BC1
:10088000D04011E01CBB0881033C09F10B34F9F0A6
:1008900020913D011981110F1213EDCF4A81441FA0
:1008A000093651F10D3211F0013E29F70093440150
:1008B0003F915F914F911F910F912F916F91CCB309
:1008C000C0FD65CFDF91CF91CFBFCF91189520911B
:1008D0004401222369F310914201112391F5343030
:1008E00092F13093420120933E0110913F013BE091
:1008F000311B30933F0127C00091420101300CF5BC
:100900000AE54F7049F43091010134FD1DC0009398
:100910000101C6E2D1E01CC03091310134FD14C0A8
:1009200000933101C2E3D1E013C0052710E000C0FD
:1009300000000BB91AC0052710E0221F1DC010E0EF
:1009400021C04AE502C032ED432FC4E1D0E032E0DD
:100950001AB114615C9A0BB11AB954E120E865E34D
:1009600020FF05270BB9279517951C3FF0F66695D4
:10097000B8F7B1F720FF05270BB9279517951C3F4E
:10098000D0F62795179517FF052700001C3F0BB9D8
:10099000B0F629913A9519F70B7E10914301110F8A
:1009A000C651D0400BB911F010933D0111E01CBBB2
:1009B00000611AB11B7E402F4B7E54E05A95F1F72F
:1009C0000BB91AB94BB974CF0E94DF000E942F02F5
:1009D0000E949D03549A2FEF85EA9EE021508040AB
:1009E0009040E1F700C00000549881E08093150129
:1009F000109216011092170110921801109219010D
:100A000010921A0110921E0110921D0110921C01E9
:100A100010921B01109222011092210110921001DC
:100A200010920F0178940E9494028DE191E00E944F
:080A30001802F9CFF894FFCF82
:020A3800FF5A63
:00000001FF
